{
  "_format": "hh-sol-artifact-1",
  "contractName": "Tracking",
  "sourceName": "contracts/SupplyChain.sol",
  "abi": [
    {
      "inputs": [
        {
          "internalType": "string",
          "name": "_name",
          "type": "string"
        },
        {
          "internalType": "string",
          "name": "_description",
          "type": "string"
        }
      ],
      "name": "add",
      "outputs": [],
      "stateMutability": "nonpayable",
      "type": "function"
    },
    {
      "inputs": [
        {
          "internalType": "uint256",
          "name": "_productId",
          "type": "uint256"
        },
        {
          "internalType": "string",
          "name": "_name",
          "type": "string"
        },
        {
          "internalType": "string",
          "name": "_description",
          "type": "string"
        }
      ],
      "name": "modify",
      "outputs": [],
      "stateMutability": "nonpayable",
      "type": "function"
    },
    {
      "inputs": [
        {
          "internalType": "uint256",
          "name": "",
          "type": "uint256"
        }
      ],
      "name": "products",
      "outputs": [
        {
          "internalType": "uint256",
          "name": "id",
          "type": "uint256"
        },
        {
          "internalType": "string",
          "name": "name",
          "type": "string"
        },
        {
          "internalType": "string",
          "name": "description",
          "type": "string"
        },
        {
          "internalType": "address",
          "name": "owner",
          "type": "address"
        },
        {
          "internalType": "enum Tracking.Role",
          "name": "role",
          "type": "uint8"
        }
      ],
      "stateMutability": "view",
      "type": "function"
    },
    {
      "inputs": [
        {
          "internalType": "address",
          "name": "",
          "type": "address"
        }
      ],
      "name": "roles",
      "outputs": [
        {
          "internalType": "enum Tracking.Role",
          "name": "",
          "type": "uint8"
        }
      ],
      "stateMutability": "view",
      "type": "function"
    },
    {
      "inputs": [
        {
          "internalType": "uint256",
          "name": "_productId",
          "type": "uint256"
        },
        {
          "internalType": "address",
          "name": "_newOwner",
          "type": "address"
        },
        {
          "internalType": "string",
          "name": "_locations",
          "type": "string"
        }
      ],
      "name": "transferProduct",
      "outputs": [],
      "stateMutability": "nonpayable",
      "type": "function"
    },
    {
      "inputs": [
        {
          "internalType": "uint256",
          "name": "_productId",
          "type": "uint256"
        }
      ],
      "name": "verifyProduct",
      "outputs": [
        {
          "internalType": "string",
          "name": "name",
          "type": "string"
        },
        {
          "internalType": "string",
          "name": "description",
          "type": "string"
        },
        {
          "internalType": "address",
          "name": "currentOwner",
          "type": "address"
        },
        {
          "internalType": "enum Tracking.Role",
          "name": "currentRole",
          "type": "uint8"
        },
        {
          "internalType": "string[]",
          "name": "locations",
          "type": "string[]"
        }
      ],
      "stateMutability": "view",
      "type": "function"
    }
  ],
  "bytecode": "0x6080604052600160005534801561001557600080fd5b50611f1e806100256000396000f3fe608060405234801561001057600080fd5b50600436106100625760003560e01c8063293bb2c114610067578063524e846214610083578063722f5bf5146100b75780637acc0b20146100d35780639937464214610107578063ebdf86ca14610137575b600080fd5b610081600480360381019061007c9190611473565b610153565b005b61009d600480360381019061009891906114e2565b610369565b6040516100ae959493929190611720565b60405180910390f35b6100d160048036038101906100cc9190611788565b610658565b005b6100ed60048036038101906100e891906114e2565b610ab1565b6040516100fe959493929190611822565b60405180910390f35b610121600480360381019061011c9190611883565b610c24565b60405161012e91906118b0565b60405180910390f35b610151600480360381019061014c91906118cb565b610c44565b005b826001600082815260200190815260200160002060030160009054906101000a900473ffffffffffffffffffffffffffffffffffffffff1673ffffffffffffffffffffffffffffffffffffffff163373ffffffffffffffffffffffffffffffffffffffff16146101f8576040517f08c379a00000000000000000000000000000000000000000000000000000000081526004016101ef9061198f565b60405180910390fd5b60006001600086815260200190815260200160002090506102198584610e9b565b838160030160006101000a81548173ffffffffffffffffffffffffffffffffffffffff021916908373ffffffffffffffffffffffffffffffffffffffff1602179055508060016000878152602001908152602001600020600082015481600001556001820181600101908161028e9190611bd1565b50600282018160020190816102a39190611bd1565b506003820160009054906101000a900473ffffffffffffffffffffffffffffffffffffffff168160030160006101000a81548173ffffffffffffffffffffffffffffffffffffffff021916908373ffffffffffffffffffffffffffffffffffffffff1602179055506003820160149054906101000a900460ff168160030160146101000a81548160ff021916908360038111156103435761034261159d565b5b0217905550600482018160040190805461035e92919061114e565b509050505050505050565b60608060008060606000600160008881526020019081526020016000206040518060c0016040529081600082015481526020016001820180546103ab906119de565b80601f01602080910402602001604051908101604052809291908181526020018280546103d7906119de565b80156104245780601f106103f957610100808354040283529160200191610424565b820191906000526020600020905b81548152906001019060200180831161040757829003601f168201915b5050505050815260200160028201805461043d906119de565b80601f0160208091040260200160405190810160405280929190818152602001828054610469906119de565b80156104b65780601f1061048b576101008083540402835291602001916104b6565b820191906000526020600020905b81548152906001019060200180831161049957829003601f168201915b505050505081526020016003820160009054906101000a900473ffffffffffffffffffffffffffffffffffffffff1673ffffffffffffffffffffffffffffffffffffffff1673ffffffffffffffffffffffffffffffffffffffff1681526020016003820160149054906101000a900460ff16600381111561053a5761053961159d565b5b600381111561054c5761054b61159d565b5b815260200160048201805480602002602001604051908101604052809291908181526020016000905b82821015610621578382906000526020600020018054610594906119de565b80601f01602080910402602001604051908101604052809291908181526020018280546105c0906119de565b801561060d5780601f106105e25761010080835404028352916020019161060d565b820191906000526020600020905b8154815290600101906020018083116105f057829003601f168201915b505050505081526020019060010190610575565b5050505081525050905080602001518160400151826060015183608001518460a00151955095509550955095505091939590929450565b826001600082815260200190815260200160002060030160009054906101000a900473ffffffffffffffffffffffffffffffffffffffff1673ffffffffffffffffffffffffffffffffffffffff163373ffffffffffffffffffffffffffffffffffffffff16146106fd576040517f08c379a00000000000000000000000000000000000000000000000000000000081526004016106f49061198f565b60405180910390fd5b6000600160008681526020019081526020016000206040518060c001604052908160008201548152602001600182018054610737906119de565b80601f0160208091040260200160405190810160405280929190818152602001828054610763906119de565b80156107b05780601f10610785576101008083540402835291602001916107b0565b820191906000526020600020905b81548152906001019060200180831161079357829003601f168201915b505050505081526020016002820180546107c9906119de565b80601f01602080910402602001604051908101604052809291908181526020018280546107f5906119de565b80156108425780601f1061081757610100808354040283529160200191610842565b820191906000526020600020905b81548152906001019060200180831161082557829003601f168201915b505050505081526020016003820160009054906101000a900473ffffffffffffffffffffffffffffffffffffffff1673ffffffffffffffffffffffffffffffffffffffff1673ffffffffffffffffffffffffffffffffffffffff1681526020016003820160149054906101000a900460ff1660038111156108c6576108c561159d565b5b60038111156108d8576108d761159d565b5b815260200160048201805480602002602001604051908101604052809291908181526020016000905b828210156109ad578382906000526020600020018054610920906119de565b80601f016020809104026020016040519081016040528092919081815260200182805461094c906119de565b80156109995780601f1061096e57610100808354040283529160200191610999565b820191906000526020600020905b81548152906001019060200180831161097c57829003601f168201915b505050505081526020019060010190610901565b5050505081525050905083816020018190525082816040018190525080600160008781526020019081526020016000206000820151816000015560208201518160010190816109fc9190611cb9565b506040820151816002019081610a129190611cb9565b5060608201518160030160006101000a81548173ffffffffffffffffffffffffffffffffffffffff021916908373ffffffffffffffffffffffffffffffffffffffff16021790555060808201518160030160146101000a81548160ff02191690836003811115610a8557610a8461159d565b5b021790555060a0820151816004019080519060200190610aa69291906111ab565b509050505050505050565b6001602052806000526040600020600091509050806000015490806001018054610ada906119de565b80601f0160208091040260200160405190810160405280929190818152602001828054610b06906119de565b8015610b535780601f10610b2857610100808354040283529160200191610b53565b820191906000526020600020905b815481529060010190602001808311610b3657829003601f168201915b505050505090806002018054610b68906119de565b80601f0160208091040260200160405190810160405280929190818152602001828054610b94906119de565b8015610be15780601f10610bb657610100808354040283529160200191610be1565b820191906000526020600020905b815481529060010190602001808311610bc457829003601f168201915b5050505050908060030160009054906101000a900473ffffffffffffffffffffffffffffffffffffffff16908060030160149054906101000a900460ff16905085565b60026020528060005260406000206000915054906101000a900460ff1681565b6000806003811115610c5957610c5861159d565b5b600260003373ffffffffffffffffffffffffffffffffffffffff1673ffffffffffffffffffffffffffffffffffffffff16815260200190815260200160002060009054906101000a900460ff166003811115610cb857610cb761159d565b5b14610cf8576040517f08c379a0000000000000000000000000000000000000000000000000000000008152600401610cef90611dd7565b60405180910390fd5b6040518060c0016040528060005481526020018481526020018381526020013373ffffffffffffffffffffffffffffffffffffffff16815260200160006003811115610d4757610d4661159d565b5b8152602001600067ffffffffffffffff811115610d6757610d66611348565b5b604051908082528060200260200182016040528015610d9a57816020015b6060815260200190600190039081610d855790505b508152506001600080548152602001908152602001600020600082015181600001556020820151816001019081610dd19190611cb9565b506040820151816002019081610de79190611cb9565b5060608201518160030160006101000a81548173ffffffffffffffffffffffffffffffffffffffff021916908373ffffffffffffffffffffffffffffffffffffffff16021790555060808201518160030160146101000a81548160ff02191690836003811115610e5a57610e5961159d565b5b021790555060a0820151816004019080519060200190610e7b9291906111ab565b50905050600080815480929190610e9190611e26565b9190505550505050565b816001600082815260200190815260200160002060030160009054906101000a900473ffffffffffffffffffffffffffffffffffffffff1673ffffffffffffffffffffffffffffffffffffffff163373ffffffffffffffffffffffffffffffffffffffff1614610f40576040517f08c379a0000000000000000000000000000000000000000000000000000000008152600401610f379061198f565b60405180910390fd5b60006001600085815260200190815260200160002090506000816000015403610f9e576040517f08c379a0000000000000000000000000000000000000000000000000000000008152600401610f9590611e94565b60405180910390fd5b60018160030160149054906101000a900460ff166003811115610fc457610fc361159d565b5b610fce9190611eb4565b6003811115610fe057610fdf61159d565b5b8160030160146101000a81548160ff021916908360038111156110065761100561159d565b5b021790555080600401839080600181540180825580915050600190039060005260206000200160009091909190915090816110419190611cb9565b50806001600086815260200190815260200160002060008201548160000155600182018160010190816110749190611bd1565b50600282018160020190816110899190611bd1565b506003820160009054906101000a900473ffffffffffffffffffffffffffffffffffffffff168160030160006101000a81548173ffffffffffffffffffffffffffffffffffffffff021916908373ffffffffffffffffffffffffffffffffffffffff1602179055506003820160149054906101000a900460ff168160030160146101000a81548160ff021916908360038111156111295761112861159d565b5b0217905550600482018160040190805461114492919061114e565b5090505050505050565b82805482825590600052602060002090810192821561119a5760005260206000209182015b8281111561119957828290816111899190611bd1565b5091600101919060010190611173565b5b5090506111a79190611204565b5090565b8280548282559060005260206000209081019282156111f3579160200282015b828111156111f25782518290816111e29190611cb9565b50916020019190600101906111cb565b5b5090506112009190611204565b5090565b5b80821115611224576000818161121b9190611228565b50600101611205565b5090565b508054611234906119de565b6000825580601f106112465750611265565b601f0160209004906000526020600020908101906112649190611268565b5b50565b5b80821115611281576000816000905550600101611269565b5090565b6000604051905090565b600080fd5b600080fd5b6000819050919050565b6112ac81611299565b81146112b757600080fd5b50565b6000813590506112c9816112a3565b92915050565b600073ffffffffffffffffffffffffffffffffffffffff82169050919050565b60006112fa826112cf565b9050919050565b61130a816112ef565b811461131557600080fd5b50565b60008135905061132781611301565b92915050565b600080fd5b600080fd5b6000601f19601f8301169050919050565b7f4e487b7100000000000000000000000000000000000000000000000000000000600052604160045260246000fd5b61138082611337565b810181811067ffffffffffffffff8211171561139f5761139e611348565b5b80604052505050565b60006113b2611285565b90506113be8282611377565b919050565b600067ffffffffffffffff8211156113de576113dd611348565b5b6113e782611337565b9050602081019050919050565b82818337600083830152505050565b6000611416611411846113c3565b6113a8565b90508281526020810184848401111561143257611431611332565b5b61143d8482856113f4565b509392505050565b600082601f83011261145a5761145961132d565b5b813561146a848260208601611403565b91505092915050565b60008060006060848603121561148c5761148b61128f565b5b600061149a868287016112ba565b93505060206114ab86828701611318565b925050604084013567ffffffffffffffff8111156114cc576114cb611294565b5b6114d886828701611445565b9150509250925092565b6000602082840312156114f8576114f761128f565b5b6000611506848285016112ba565b91505092915050565b600081519050919050565b600082825260208201905092915050565b60005b8381101561154957808201518184015260208101905061152e565b60008484015250505050565b60006115608261150f565b61156a818561151a565b935061157a81856020860161152b565b61158381611337565b840191505092915050565b611597816112ef565b82525050565b7f4e487b7100000000000000000000000000000000000000000000000000000000600052602160045260246000fd5b600481106115dd576115dc61159d565b5b50565b60008190506115ee826115cc565b919050565b60006115fe826115e0565b9050919050565b61160e816115f3565b82525050565b600081519050919050565b600082825260208201905092915050565b6000819050602082019050919050565b600082825260208201905092915050565b600061165c8261150f565b6116668185611640565b935061167681856020860161152b565b61167f81611337565b840191505092915050565b60006116968383611651565b905092915050565b6000602082019050919050565b60006116b682611614565b6116c0818561161f565b9350836020820285016116d285611630565b8060005b8581101561170e57848403895281516116ef858261168a565b94506116fa8361169e565b925060208a019950506001810190506116d6565b50829750879550505050505092915050565b600060a082019050818103600083015261173a8188611555565b9050818103602083015261174e8187611555565b905061175d604083018661158e565b61176a6060830185611605565b818103608083015261177c81846116ab565b90509695505050505050565b6000806000606084860312156117a1576117a061128f565b5b60006117af868287016112ba565b935050602084013567ffffffffffffffff8111156117d0576117cf611294565b5b6117dc86828701611445565b925050604084013567ffffffffffffffff8111156117fd576117fc611294565b5b61180986828701611445565b9150509250925092565b61181c81611299565b82525050565b600060a0820190506118376000830188611813565b81810360208301526118498187611555565b9050818103604083015261185d8186611555565b905061186c606083018561158e565b6118796080830184611605565b9695505050505050565b6000602082840312156118995761189861128f565b5b60006118a784828501611318565b91505092915050565b60006020820190506118c56000830184611605565b92915050565b600080604083850312156118e2576118e161128f565b5b600083013567ffffffffffffffff811115611900576118ff611294565b5b61190c85828601611445565b925050602083013567ffffffffffffffff81111561192d5761192c611294565b5b61193985828601611445565b9150509250929050565b7f554e415554484f52495a45440000000000000000000000000000000000000000600082015250565b6000611979600c8361151a565b915061198482611943565b602082019050919050565b600060208201905081810360008301526119a88161196c565b9050919050565b7f4e487b7100000000000000000000000000000000000000000000000000000000600052602260045260246000fd5b600060028204905060018216806119f657607f821691505b602082108103611a0957611a086119af565b5b50919050565b600081549050611a1e816119de565b9050919050565b60008190508160005260206000209050919050565b60006020601f8301049050919050565b600082821b905092915050565b600060088302611a877fffffffffffffffffffffffffffffffffffffffffffffffffffffffffffffffff82611a4a565b611a918683611a4a565b95508019841693508086168417925050509392505050565b6000819050919050565b6000611ace611ac9611ac484611299565b611aa9565b611299565b9050919050565b6000819050919050565b611ae883611ab3565b611afc611af482611ad5565b848454611a57565b825550505050565b600090565b611b11611b04565b611b1c818484611adf565b505050565b5b81811015611b4057611b35600082611b09565b600181019050611b22565b5050565b601f821115611b8557611b5681611a25565b611b5f84611a3a565b81016020851015611b6e578190505b611b82611b7a85611a3a565b830182611b21565b50505b505050565b600082821c905092915050565b6000611ba860001984600802611b8a565b1980831691505092915050565b6000611bc18383611b97565b9150826002028217905092915050565b818103611bdf575050611cb7565b611be882611a0f565b67ffffffffffffffff811115611c0157611c00611348565b5b611c0b82546119de565b611c16828285611b44565b6000601f831160018114611c455760008415611c33578287015490505b611c3d8582611bb5565b865550611cb0565b601f198416611c5387611a25565b9650611c5e86611a25565b60005b82811015611c8657848901548255600182019150600185019450602081019050611c61565b86831015611ca35784890154611c9f601f891682611b97565b8355505b6001600288020188555050505b5050505050505b565b611cc28261150f565b67ffffffffffffffff811115611cdb57611cda611348565b5b611ce582546119de565b611cf0828285611b44565b600060209050601f831160018114611d235760008415611d11578287015190505b611d1b8582611bb5565b865550611d83565b601f198416611d3186611a25565b60005b82811015611d5957848901518255600182019150602085019450602081019050611d34565b86831015611d765784890151611d72601f891682611b97565b8355505b6001600288020188555050505b505050505050565b7f554e415554484f52495a45445f524f4c45000000000000000000000000000000600082015250565b6000611dc160118361151a565b9150611dcc82611d8b565b602082019050919050565b60006020820190508181036000830152611df081611db4565b9050919050565b7f4e487b7100000000000000000000000000000000000000000000000000000000600052601160045260246000fd5b6000611e3182611299565b91507fffffffffffffffffffffffffffffffffffffffffffffffffffffffffffffffff8203611e6357611e62611df7565b5b600182019050919050565b50565b6000611e7e60008361151a565b9150611e8982611e6e565b600082019050919050565b60006020820190508181036000830152611ead81611e71565b9050919050565b6000611ebf82611299565b9150611eca83611299565b9250828201905080821115611ee257611ee1611df7565b5b9291505056fea26469706673582212203b332fc63f754d02c7ea6813aca2123091e941e2cf82089bf76b90769c3789cd64736f6c63430008180033",
  "linkReferences": {},
  "deployedLinkReferences": {}
}